:020000020000FC
:0C0000000C9400010C94AD010C949C01C8
:040010000C94BE018D
:04002C000C94D5015A
:100200000FE50DBF08E00EBF00E00ABB0FEF0BBB10
:100210000FEF07BB0FEF04BB00EF01BB0FE002BB0A
:1002200005E005BF789400E00DBD0CBD00E00BBDFE
:1002300000E00ABD00E009BD00E008BD0DEA0FBD09
:1002400009E00EBD00E004BD04EF03BD07E005BDFD
:1002500000E002BD01E809BF00E005BB00E00ABD07
:1002600008BD33EF222438BB0E94DA0119B3212FD5
:10027000107F2F70103721F401E805BB0E94880120
:10028000103521F401E005BB0E948801103621F4ED
:1002900000E805BB0E948801103B21F402E405BB85
:1002A0000E948801103921F402E005BB0E948801F8
:1002B000103A21F400E405BB0E948801103D29F4A6
:1002C00001E405BB00EA0ABD08BD103E29F402E8BE
:1002D00005BB00EA0ABD08BD103F09F0C4CF00E02D
:1002E00005BB00E00ABD08BD273011F40E947E0165
:1002F0002B3011F40E949201B6CFFFCF33FF04C020
:1003000008E00095302301C038600E94EE01089596
:1003100033FF04C000EA0ABD08BD03C00FEF0ABDE9
:1003200008BD089536FF04C000EF0095302301C0DA
:10033000306F0E94EE010895839B07C040E042BFEA
:1003400041E048BF44E043BF05C040E043BF12B6B0
:1003500040E04BBF4FEF4ABF1895829B07C040E07B
:1003600042BF41E048BF44E043BF05C040E043BF57
:1003700002B640E04BBF4FEF4ABF189540E044BD86
:1003800020FE09C0979A0E94EA0197984FEF4ABF52
:1003900040E84BBF08C0969A0E94EA0196984FEF3A
:1003A0004ABF40E44BBF2394189570E073BF7FEFC2
:1003B00072BF189564E1CC2400000000000000002A
:1003C00000000000000000000000CA94A9F76A9530
:1003D00099F708955CE05A95F1F708956AE0DD24F5
:1003E000CC24CA94F1F7DA94E1F76A95D1F708952D
:00000001FF
